:100000000C943C000C944E000C944E000C944E004A
:100010000C944E000C944E000C944E000C944E0028
:100020000C944E000C944E000C944E000C944E0018
:100030000C944E000C944E000C944E000C944E0008
:100040000C944E000C944E000C944E000C944E00F8
:100050000C944E000C944E000C944E000C944E00E8
:100060000C944E000C944E000C944E000C944E00D8
:100070000C944E000C944E0011241FBECFEFCDBF48
:10008000DFE3DEBF28E3A0E0B8E301C01D92A331A7
:10009000B207E1F70E9454010C94E3070C940000AE
:1000A00060E080E690E00E94AC0760E081E690E0CE
:1000B0000E94AC078091630080FDFCCF08950F93F0
:1000C0001F938B019C010F2EFCE036952795179509
:1000D0000795FA95D1F7F02D0F73112722273327B3
:1000E000F801E653FF4640818B019C01689415F8A6
:1000F00036952795179507951694D1F70F73112705
:10010000222733270427F801E653FF462081DC012C
:10011000CB018F739927AA27BB278227FC01E653BF
:10012000FF4680811F910F910895CF93FC0180813C
:100130009181A281B381C82FCF73BC01CD01689496
:1001400015F896958795779567951694D1F76083FE
:100150007183828393830E945F0091E0C81301C082
:1001600090E0892FCF9108952F923F924F925F9206
:100170006F927F928F929F92AF92BF92CF92DF92B7
:10018000EF92FF920F931F93CF93DF93CDB7DEB71C
:100190002B97CDBFDEBFC22EB32EA42E952E862E5A
:1001A000772E682E592EF22E032F142F5A8769832B
:1001B000B72FD82EE92EE0E0F0E014C031962F2DB5
:1001C000302F412F5A8569817B2F8D2D9E2D08E080
:1001D0000E94C704F22E032F142F5A876983B72F6A
:1001E000D82EE92E2F2D302F412F5A8569817B2F54
:1001F0008D2D9E2DA0E00E94E30401F78FEF8A87EA
:10020000CB86B9824A2C392C282C1AC08D01000FBC
:10021000111F000F111F000F111F2B853981442D55
:10022000532D622D772D862D952D0E94C7048A842B
:100230008226912CF401E653F04780818A87FD01E4
:10024000DF011197EF2B11F78A852B96CDBFDEBF0B
:10025000DF91CF911F910F91FF90EF90DF90CF90A2
:10026000BF90AF909F908F907F906F905F904F90D6
:100270003F902F9008951092E205E0E2F4E086E0CE
:10028000818388E0828B99E09283808B838BE0E08E
:10029000F4E092EC9183818B94E09283828B80ECEA
:1002A0008583948B958B08950E9450000E943B019A
:1002B0000E948B020E94B40280E80E94FE012FE798
:1002C0004AE156E0215040405040E1F700C00000B4
:1002D00080E40E94FE010E940203B82E0F2EFAE075
:1002E000EF2EF8E3FF2EF02DD7018D919C91282F52
:1002F000392F40E050E060E070E080E090E008E2FC
:100300000E94AC04722EE32F842E952E162F672E9A
:10031000D82FC92F0F2EF4E0CF2EF8E3DF2EF02DCB
:10032000D6018D919C91AC01242F352F40E050E0F7
:1003300060E070E080E090E008E10E94AC04F22F01
:10034000E32B842A952AA12EA62AB62DB72B8D2B16
:100350009C2BC0E0D8E30881198120E030E00F2E0B
:10036000FCE0000F111F221F331FFA95D1F7F02D6B
:10037000F729E12B822A932A0A811B810295129583
:10038000107F1027007F1027F02B312F3E2B2F2FAF
:100390002B29EFE7FAE146E0E150F0404040E1F779
:1003A00000C00000482D592D6A2D7B2F0E94B400FB
:1003B0002A813B81E881F981D6016C9111967C916B
:1003C000D7014C9111965C911F928F931F92BF920F
:1003D000C90199279F938F93FF93EF937F936F9317
:1003E0005F934F938AE091E99F938F930E94E40279
:1003F000EDB7FEB73E96EDBFFEBF5ECF0F931F93E6
:10040000CF93DF9300D000D0CDB7DEB7082F19828D
:100410001A821B821C828093060410E024C08FE69F
:100420000E9496028091040886FFFCCFE0E0F8E08D
:1004300084818064848389819A81AB81BC81BA2F55
:10044000A92F982F882789839A83AB83BC830E9426
:100450009D0249815A816B817C81482B49835A8353
:100460006B837C831F5F1330D0F200930504003848
:1004700019F40AE018E302C004E018E3CE01019683
:100480000E949500F8018583898183708283898128
:100490009A81AB81BC81B695A79597958795B695BE
:1004A000A795979587958170838389819A81AB8180
:1004B000BC81AC01BD01689412F87695679557959B
:1004C00047951694D1F7242F21702483BC01CD01C8
:1004D000689413F896958795779567951694D1F754
:1004E0000E941E0423E534E049EE5EE30E947D0392
:1004F00020E030E040E05FE30E9411030E94EF0340
:10050000F801608371832496CDBFDEBFDF91CF9168
:100510001F910F910895E0E0F8E080E095E080877A
:10052000918780EC868382EC8783089590910408FC
:1005300095FFFCCF80930208089580E8809304081B
:1005400080E49CE9A0E0B0E008C00197A109B109EE
:1005500021F481E08093123804C020910408222302
:10056000A4F7809100080895E0E2F8E080E491E0CB
:100570008087918782E4868383E0878308959091C2
:10058000240895FFFCCF8093220808950F931F93B2
:10059000CF93DF938C01C0E0D0E007C0F801EC0FEF
:1005A000FD1F80810E94BF022196F801019000206A
:1005B000E9F73197E01BF10BCE17DF0778F3DF91F6
:1005C000CF911F910F910895CF93DF93CDB7DEB7F1
:1005D0006E97CDBFDEBF9E012D5D3F4FF90141916A
:1005E00051919F016EE170E0CE0101960E94EF04EF
:1005F000CE0101960E94C6026E96CDBFDEBFDF918E
:10060000CF9108959091280481E08927817090917D
:10061000080492FD02C092E001C090E0892B089589
:100620005058BB27AA270E9428030C9472040E94EA
:10063000640438F00E946B0420F039F49F3F19F4F1
:1006400026F40C9461040EF4E095E7FB0C945B0433
:10065000E92F0E94830458F3BA17620773078407CF
:10066000950720F079F4A6F50C94A5040EF4E09516
:100670000B2EBA2FA02D0B01B90190010C01CA015C
:10068000A0011124FF27591B99F0593F50F4503E07
:1006900068F11A16F040A22F232F342F4427585FF9
:1006A000F3CF469537952795A795F0405395C9F711
:1006B0007EF41F16BA0B620B730B840BBAF09150C9
:1006C000A1F0FF0FBB1F661F771F881FC2F70EC068
:1006D000BA0F621F731F841F48F48795779567953B
:1006E000B795F7959E3F08F0B0CF9395880F08F027
:1006F0009927EE0F9795879508950E9491030C9482
:1007000072040E946B0458F00E94640440F029F4C3
:100710005F3F29F00C945B0451110C94A6040C94D7
:1007200061040E94830468F39923B1F3552391F384
:10073000951B550BBB27AA2762177307840738F050
:100740009F5F5F4F220F331F441FAA1FA9F335D0AD
:100750000E2E3AF0E0E832D091505040E695001C61
:10076000CAF72BD0FE2F29D0660F771F881FBB1F1B
:10077000261737074807AB07B0E809F0BB0B802DF9
:10078000BF01FF2793585F4F3AF09E3F510578F025
:100790000C945B040C94A6045F3FE4F3983ED4F3FE
:1007A000869577956795B795F7959F5FC9F7880FF9
:1007B000911D9695879597F90895E1E0660F771F4B
:1007C000881FBB1F621773078407BA0720F0621BDC
:1007D000730B840BBA0BEE1F88F7E09508950E9407
:1007E0008B0488F09F5798F0B92F9927B751B0F034
:1007F000E1F0660F771F881F991F1AF0BA95C9F7A5
:1008000014C0B13091F00E94A504B1E008950C9499
:10081000A504672F782F8827B85F39F0B93FCCF34C
:10082000869577956795B395D9F73EF49095809521
:10083000709561957F4F8F4F9F4F0895E89409C041
:1008400097FB3EF490958095709561957F4F8F4F03
:100850009F4F9923A9F0F92F96E9BB279395F69519
:10086000879577956795B795F111F8CFFAF4BB0F97
:1008700011F460FF1BC06F5F7F4F8F4F9F4F16C0FB
:10088000882311F096E911C0772321F09EE8872F85
:10089000762F05C0662371F096E8862F70E060E041
:1008A0002AF09A95660F771F881FDAF7880F9695BA
:1008B000879597F9089597F99F6780E870E060E061
:1008C00008959FEF80EC089500240A9416161706E9
:1008D00018060906089500240A9412161306140631
:1008E00005060895092E0394000C11F4882352F094
:1008F000BB0F40F4BF2B11F460FF04C06F5F7F4F4C
:100900008F4F9F4F089557FD9058440F551F59F032
:100910005F3F71F04795880F97FB991F61F09F3FEC
:1009200079F087950895121613061406551FF2CF15
:100930004695F1DF08C0161617061806991FF1CF65
:1009400086957105610508940895E894BB2766278C
:100950007727CB0197F908950F93083090F0982FDF
:10096000872F762F652F542F432F322F22270850A1
:10097000F4CF220F331F441F551F661F771F881F98
:10098000991F0A95B2F70F91089597FB10F81694E6
:1009900000080F93083098F00850232F342F452F6C
:1009A000562F672F782F892F902DF4CF0594979588
:1009B00087957795679557954795379527950A9524
:1009C000AAF70F9108950024A7FD00942A17300577
:1009D0004005500560057005800590050895AEE05E
:1009E000B0E0E5EFF4E00C94C0078C01FA0186E07A
:1009F0008C8309831A8377FF02C060E070E8CB0123
:100A000001978D839E83A901BF01CE0101960E94AB
:100A10001B054D815E8157FD0AC02F813885421725
:100A200053070CF49A01F801E20FF31F10822E967F
:100A3000E4E00C94D907ABE0B0E0E1E2F5E00C941F
:100A4000B2076C017B018A01FC0116821782838147
:100A500081FFCCC1CE0101963C01F6019381F701E3
:100A600093FD859193FF81917F01882309F4BAC199
:100A7000853239F493FD859193FF81917F01853211
:100A800029F4B60190E00E941207E7CF912C212CA7
:100A9000312CFFE1F315D8F08B3279F038F4803245
:100AA00079F08332A1F4232D20611DC08D3261F0D5
:100AB000803369F4232D216016C0832D8260382E87
:100AC000E32DE4603E2E2AC0F32DF8601DC037FCF4
:100AD0002DC020ED280F2A3040F08E32B9F436FCBC
:100AE00081C1232D2064322E19C036FE06C08AE053
:100AF000989E200D1124922E11C0EAE02E9E200D0A
:100B00001124222EF32DF0623F2E08C08C3621F4E2
:100B1000832D8068382E02C0883641F4F70193FD9A
:100B2000859193FF81917F018111B3CF982F9F7D94
:100B30009554933028F40C5F1F4F9FE399830DC0A9
:100B4000833631F0833771F0833509F059C021C005
:100B5000F801808189830E5F1F4F88248394912C34
:100B6000530113C02801F2E04F0E511CF801A08080
:100B7000B18036FE03C0692D70E002C06FEF7FEFD9
:100B8000C5010E9407074C018201F32DFF773F2E1C
:100B900016C0280122E0420E511CF801A080B1804D
:100BA00036FE03C0692D70E002C06FEF7FEFC50114
:100BB0000E94FC064C01F32DF0683F2E820133FCAD
:100BC0001BC0822D90E088169906B0F4B60180E231
:100BD00090E00E9412072A94F4CFF50137FC85912A
:100BE00037FE81915F01B60190E00E94120721104B
:100BF0002A9421E0821A91088114910471F7E8C0C7
:100C0000843611F0893641F5F80137FE07C060815E
:100C10007181828193810C5F1F4F08C06081718157
:100C2000072E000C880B990B0E5F1F4FF32DFF76DC
:100C30003F2E97FF09C090958095709561957F4FE5
:100C40008F4F9F4FF0683F2E2AE030E0A3010E94B3
:100C50004E07882E861845C0853731F4232D2F7E08
:100C6000B22E2AE030E025C0932D997FB92E8F3621
:100C7000C1F018F4883579F0B5C0803719F088379D
:100C800021F0B0C0E92FE061BE2EB4FE0DC0FB2DF7
:100C9000F460BF2E09C034FE0AC0292F2660B22E90
:100CA00006C028E030E005C020E130E002C020E1CD
:100CB00032E0F801B7FE07C06081718182819381C3
:100CC0000C5F1F4F06C06081718180E090E00E5F75
:100CD0001F4FA3010E944E07882E8618FB2DFF7719
:100CE0003F2E36FE0DC0232D2E7FA22E891458F4E0
:100CF00034FE0BC032FC09C0832D8E7EA82E05C0A9
:100D0000B82CA32C03C0B82C01C0B92CA4FE0FC072
:100D1000FE01E80DF11D8081803321F49A2D997E2A
:100D2000A92E09C0A2FE06C0B394B39404C08A2DB4
:100D3000867809F0B394A3FC11C0A0FE06C0B214DB
:100D400088F4280C922C9B180EC0B21460F4B601E3
:100D500080E290E00E941207B394F7CFB21418F427
:100D60002B1802C0982C212CA4FE10C0B60180E3E1
:100D700090E00E941207A2FE17C0A1FC03C088E702
:100D800090E002C088E590E0B6010CC08A2D86781C
:100D900059F0A1FE02C08BE201C080E2A7FC8DE207
:100DA000B60190E00E941207891438F4B60180E37E
:100DB00090E00E9412079A94F7CF8A94F301E80D0D
:100DC000F11D8081B60190E00E9412078110F5CFDD
:100DD000222009F442CEB60180E290E00E94120780
:100DE0002A94F6CFF6018681978102C08FEF9FEF9C
:100DF0002B96E2E10C94CB07FC010590615070400A
:100E00000110D8F7809590958E0F9F1F0895FC01D3
:100E10006150704001900110D8F7809590958E0F29
:100E20009F1F08950F931F93CF93DF93FB0123819F
:100E300021FD03C08FEF9FEF2CC022FF16C046811B
:100E40005781248135814217530744F4A081B18131
:100E50009D012F5F3F4F208331838C932681378103
:100E60002F5F3F4F2683378314C08B01EC01FB01BA
:100E70000084F185E02D0995892BE1F6D8011696BD
:100E80008D919C911797019616968D939C93179729
:100E9000CE01DF91CF911F910F910895FA01AA27FA
:100EA000283051F1203181F1E8946F936E7F6E5FAD
:100EB0007F4F8F4F9F4FAF4FB1E03ED0B4E03CD05B
:100EC000670F781F891F9A1FA11D680F791F8A1F3E
:100ED000911DA11D6A0F711D811D911DA11D20D0A5
:100EE00009F468943F912AE0269F11243019305D5F
:100EF0003193DEF6CF010895462F4770405D419350
:100F0000B3E00FD0C9F7F6CF462F4F70405D4A339C
:100F100018F0495D31FD4052419302D0A9F7EACF64
:100F2000B4E0A6959795879577956795BA95C9F793
:100F300000976105710508959B01AC010A2E069486
:100F40005795479537952795BA95C9F7620F731F3F
:100F5000841F951FA01D0895DC0128ED2093340007
:100F60006C9308952F923F924F925F926F927F926F
:100F70008F929F92AF92BF92CF92DF92EF92FF92A9
:100F80000F931F93CF93DF93CDB7DEB7CA1BDB0B55
:100F9000CDBFDEBF09942A88398848885F846E8473
:100FA0007D848C849B84AA84B984C884DF80EE808D
:100FB000FD800C811B81AA81B981CE0FD11DCDBFCF
:0A0FC000DEBFED010895F894FFCFA5
:100FCA00009BAD36C15A6CF71982B42FD84375EE1F
:100FDA0032A99F04F3685EC52BB0861DEA7147DC0F
:100FEA0064FFC952A53E08937DE6D04BBC27118AFF
:100FFA0056CDFB60970C3AA14FD4E2798E1523B8EF
:10100A00C85365FE0992A43FD14A7CE7108BBD26DE
:10101A00FA6157CC3BA0960DE3784ED522B98F14CE
:10102A00AC37019A6DF6C05BB52E188374EFD942BE
:10103A009E0533A85FC4F269871C2AB146DDEB70AE
:10104A000B90A63DCA5167FC1289BF24D3487EE59E
:10105A0039A2940FF86355CE20BB8D16E17A4CD78E
:10106A006FF4C259AE35039876EDDB40B72C1A817E
:10107A005DC6F06B9C0731AA44DFE972851E28B36E
:10108A00C3586EF50299AF34DA4177EC1B80B62D5E
:10109A00F16A5CC730AB9D06E87345DE29B2841F4E
:1010AA00A73C0A9166FDCB50BE2513887FE4D2493E
:1010BA00950E38A354CFF9628C1721BA4DD6E07B2E
:1010CA00000306050C0F0A09181B1E1D141712111E
:1010DA00303336353C3F3A39282B2E2D242722210E
:1010EA00232025262F2C292A3B383D3E37343132FE
:1010FA00131015161F1C191A0B080D0E07040102EE
:10110A003C25303478253034782530337825303210
:0B111A00782578253032783E0D0A0061
:00000001FF
