S0270000417474696E79313632342D546F7765722D546F702D436F6E74726F6C6C65722E73726563C8
S11300000C943C000C944E000C944E000C944E0046
S11300100C944E000C944E000C944E000C944E0024
S11300200C944E000C944E000C944E000C944E0014
S11300300C944E000C944E000C944E000C944E0004
S11300400C944E000C944E000C944E000C944E00F4
S11300500C944E000C944E000C944E000C944E00E4
S11300600C944E000C944E000C944E000C944E00D4
S11300700C944E000C944E0011241FBECFEFCDBF44
S1130080DFE3DEBF28E3A0E0B8E301C01D92AB309C
S1130090B207E1F70E94CB000C9478020C940000A4
S11300A060E080E690E00E94720260E081E690E009
S11300B00E9472028091630080FDFCCF08950F932B
S11300C01F938B019C010F2EFCE036952795179505
S11300D00795FA95D1F7F02D0F73112722273327AF
S11300E0F801EC50FB4740818B019C01689415F8A2
S11300F036952795179507951694D1F70F73112701
S1130100222733270427F801EC50FB472081DC0128
S1130110CB018F739927AA27BB278227FC01EC50B8
S1130120FB4780811F910F910895CF93FC0180813B
S11301309181A281B381C82FCF73BC01CD01689492
S113014015F896958795779567951694D1F76083FA
S11301507183828393830E945F0091E0C81301C07E
S113016090E0892FCF9108951092E205E0E2F4E047
S113017086E0818388E0828B99E09283838BE0E040
S1130180F4E092EC9183818B84E0828390EC9583FC
S1130190848B858B08950E9450000E94B4000E94B5
S11301A049010E94DD002FE78AE196E0215080405A
S11301B09040E1F700C00000F4CF0F931F93CF935A
S11301C0DF9300D000D0CDB7DEB719821A821B822C
S11301D01C8280E88093060410E022C08FE60E940F
S11301E054018091040886FFFCCF80E480930408C6
S11301F089819A81AB81BC81BA2FA92F982F882736
S113020089839A83AB83BC830E945B0149815A81B1
S11302106B817C81482B49835A836B837C831F5F6A
S11302201330E0F280E880930504CE0101960E9429
S1130230950000E018E3F801878389819A81AB81F6
S1130240BC81282F23702483282F24702583282FF2
S113025028702683BC01CD01689413F89695879580
S1130260779567951694D1F70E94E40121E63BE067
S113027046E352E40E947201F80160837183828331
S113028093832496CDBFDEBFDF91CF911F910F9151
S11302900895E0E0F8E080E095E08087918780ECC5
S11302A0868382EC878308959091040895FFFCCFA0
S11302B080930208089580E88093040880E49CE910
S11302C0A0E0B0E008C00197A109B10921F481E0E0
S11302D080930A3804C0209104082223A4F7809153
S11302E0000808950E9486010C9438020E9431028D
S11302F058F00E942A0240F029F45F3F29F00C9440
S1130300210251110C946C020C9427020E944902A0
S113031068F39923B1F3552391F3951B550BBB2730
S1130320AA2762177307840738F09F5F5F4F220F75
S1130330331F441FAA1FA9F335D00E2E3AF0E0E86C
S113034032D091505040E695001CCAF72BD0FE2FB6
S113035029D0660F771F881FBB1F2617370748074A
S1130360AB07B0E809F0BB0B802DBF01FF27935802
S11303705F4F3AF09E3F510578F00C9421020C94A3
S11303806C025F3FE4F3983ED4F3869577956795C6
S1130390B795F7959F5FC9F7880F911D9695879537
S11303A097F90895E1E0660F771F881FBB1F621756
S11303B073078407BA0720F0621B730B840BBA0B14
S11303C0EE1F88F7E0950895E89409C097FB3EF482
S11303D090958095709561957F4F8F4F9F4F99238E
S11303E0A9F0F92F96E9BB279395F695879577950C
S11303F06795B795F111F8CFFAF4BB0F11F460FFCC
S11304001BC06F5F7F4F8F4F9F4F16C0882311F023
S113041096E911C0772321F09EE8872F762F05C037
S1130420662371F096E8862F70E060E02AF09A95D2
S1130430660F771F881FDAF7880F9695879597F9C7
S1130440089597F99F6780E870E060E008959FEF52
S113045080EC089500240A94161617061806090657
S1130460089500240A941216130614060506089526
S1130470092E0394000C11F4882352F0BB0F40F4AE
S1130480BF2B11F460FF04C06F5F7F4F8F4F9F4FEE
S1130490089557FD9058440F551F59F05F3F71F070
S11304A04795880F97FB991F61F09F3F79F08795D7
S11304B00895121613061406551FF2CF4695F1DF60
S11304C008C0161617061806991FF1CF86957105F0
S11304D0610508940895E894BB2766277727CB0124
S11304E097F90895DC0128ED209334006C93089566
S10704F0F894FFCFAA
S11304F4000306050C0F0A09181B1E1D14171211FC
S1130504303336353C3F3A39282B2E2D24272221EB
S1130514232025262F2C292A3B383D3E37343132DB
S1130524131015161F1C191A0B080D0E07040102CB
S9030000FC
