S0270000417474696E79313632342D546F7765722D546F702D436F6E74726F6C6C65722E73726563C8
S11300000C943C000C944E000C944E000C944E0046
S11300100C944E000C944E000C944E000C944E0024
S11300200C944E000C944E000C944E000C944E0014
S11300300C944E000C944E000C944E000C944E0004
S11300400C944E000C944E000C944E000C944E00F4
S11300500C944E000C944E000C944E000C944E00E4
S11300600C944E000C944E000C944E000C944E00D4
S11300700C944E000C944E0011241FBECFEFCDBF44
S1130080DFE3DEBF28E3A0E0B8E301C01D92A331A3
S1130090B207E1F70E94EE010C949B080C94000057
S11300A0E0E0F6E081E08083818380EA8283108649
S11300B0118680E182878091060680FDFCCF089539
S11300C0E0E0F6E08285816082878091060680FD0B
S11300D0FCCF8091050681FFFCCFE0E0F6E082E0F2
S11300E08583848995890895EF92FF920F931F93D6
S11300F0CF93DF9300D000D0CDB7DEB7082F853083
S113010039F40F2EF0E0EF2EF8E3FF2EF02D06C0A9
S11301100F2EF2E0EF2EF8E3FF2EF02D00930C06E5
S113012084E0898385E08A8387E08B831C8210E0E6
S1130130A0E0B6E012968C911297E1E0F0E0EC0FAB
S1130140FD1FE10FF11D9081887F892B12968C93FE
S11301500E946000803F2FE0920718F01F5F143068
S113016038F30430F1F4133058F424E030E0211B68
S11301703109BC0102C0769567952A95E2F70DC056
S1130180BC0180E090E00E94D60427E137EB41E512
S113019050E40E9435040E94A704F7016083718330
S11301A00FC0133068F422E030E0211B3109BC0198
S11301B002C0769567952A95E2F7F701608371830B
S11301C02496CDBFDEBFDF91CF911F910F91FF9099
S11301D0EF90089560E080E690E00E94640860E09B
S11301E081E690E00E9464088091630080FDFCCF6A
S11301F008950F931F938B019C010F2EFCE03695FD
S1130200279517950795FA95D1F7F02D0F731127B8
S113021022273327F801E65CFD4640818B019C01CF
S1130220689415F836952795179507951694D1F780
S11302300F731127222733270427F801E65CFD46B4
S11302402081DC01CB018F739927AA27BB27822742
S1130250FC01E65CFD4680811F910F910895CF93C8
S1130260FC0180819181A281B381C82FCF73BC012D
S1130270CD01689415F896958795779567951694AA
S1130280D1F760837183828393830E94F90091E0A4
S1130290C81301C090E0892FCF9108952F923F9207
S11302A04F925F926F927F928F929F92AF92BF9282
S11302B0CF92DF92EF92FF920F931F93CF93DF932E
S11302C0CDB7DEB72B97CDBFDEBFC22EB32EA42E83
S11302D0952E862E772E682E592EF22E032F142F4C
S11302E05A876983B72FD82EE92EE0E0F0E014C0D6
S11302F031962F2D302F412F5A8569817B2F8D2DDB
S11303009E2D08E00E947F05F22E032F142F5A879A
S11303106983B72FD82EE92E2F2D302F412F5A85E0
S113032069817B2F8D2D9E2DA0E00E949B0501F7F6
S11303308FEF8A87CB86B9824A2C392C282C1AC095
S11303408D01000F111F000F111F000F111F2B85AE
S11303503981442D532D622D772D862D952D0E94A4
S11303607F058A848226912CF401E65CFE46808116
S11303708A87FD01DF011197EF2B11F78A852B96F0
S1130380CDBFDEBFDF91CF911F910F91FF90EF9012
S1130390DF90CF90BF90AF909F908F907F906F90A1
S11303A05F904F903F902F9008951092E205E0E205
S11303B0F4E086E0818388E0828B99E09283808BED
S11303C0838BE0E0F4E092EC9183818B94E0928360
S11303D0828B80EC8583948B958B08950E94EA0030
S11303E00E94D5010E9443030E946C030E945000A6
S11303F080E80E94B60280E40E94B6028FE493EC87
S11304000197F1F700C0000085E00E947400AFE49A
S1130410B3EC1197F1F700C0000084E00E9474006F
S11304200E94BA03D82ECAE0D8E348815981242F08
S1130430352F40E050E060E070E080E090E00CE2B6
S11304400E946405E22F932EC42EF52FA62E172F9B
S1130450782E892E0F2EF4E0EF2EF8E3FF2EF02DE8
S1130460D7014D915C91242F352F40E050E060E09E
S113047070E080E090E00CE10E946405E22B292CFE
S1130480232AC42AF52B3A2C362A172BB72DB82B3E
S1130490A82DA92B4090003850900138242D352DDB
S11304A040E050E060E070E080E090E000E10E9415
S11304B06405E22B922C932AC42AF52BA32CA62A9A
S11304C0B12EB72A009102381091033820E030E0B1
S11304D0000F111F221F331F000F111F221F331F74
S11304E0000F111F221F331F000F111F221F331F64
S11304F0E02B912AC22A532F5F2B2E2F2D29392D21
S11305004C2D6A2D7B2D8B2B9A2B0E944E017091C2
S11305100238E09103385091003860910138D701D6
S11305203C9111964C91988129811F928F931F922F
S1130530DF92EF937F936F935F934F933F932F9348
S11305409F938AE792E99F938F930E949C03BFE74E
S11305502AE186E0B15020408040E1F700C000006D
S1130560ADB7BEB71E96ADBFBEBF42CF0F931F93AC
S1130570CF93DF9300D000D0CDB7DEB7082F198218
S11305801A821B821C828093060410E024C08FE62A
S11305900E944E038091040886FFFCCFE0E0F8E05F
S11305A084818064848389819A81AB81BC81BA2FE0
S11305B0A92F982F882789839A83AB83BC830E94B1
S11305C0550349815A816B817C81482B49835A8325
S11305D06B837C831F5F1330D0F2009305040038D3
S11305E019F40AE018E302C004E018E3CE0101960E
S11305F00E942F01F8018583898183708283898118
S11306009A81AB81BC81B695A79597958795B69548
S1130610A795979587958170838389819A81AB810A
S1130620BC81AC01BD01689412F876956795579525
S113063047951694D1F7242F21702483BC01CD0152
S1130640689413F896958795779567951694D1F7DE
S11306500E94D60423E534E049EE5EE30E943504AB
S113066020E030E040E05FE30E94C9030E94A70459
S1130670F801608371832496CDBFDEBFDF91CF91F3
S11306801F910F910895E0E0F8E080E095E0808705
S1130690918780EC868382EC878308959091040887
S11306A095FFFCCF80930208089580E880930408A6
S11306B080E49CE9A0E0B0E008C00197A109B10979
S11306C021F481E08093123804C02091040822238D
S11306D0A4F7809100080895E0E2F8E080E491E056
S11306E08087918782E4868383E08783089590914D
S11306F0240895FFFCCF8093220808950F931F933D
S1130700CF93DF938C01C0E0D0E007C0F801EC0F79
S1130710FD1F80810E9477032196F801019000203B
S1130720E9F73197E01BF10BCE17DF0778F3DF9180
S1130730CF911F910F910895CF93DF93CDB7DEB77B
S11307406E97CDBFDEBF9E012D5D3F4FF9014191F4
S113075051919F016EE170E0CE0101960E94A705C0
S1130760CE0101960E947E036E96CDBFDEBFDF915F
S1130770CF9108959091280481E089278170909108
S1130780080492FD02C092E001C090E0892B089514
S11307905058BB27AA270E94E0030C942A050E9404
S11307A01C0538F00E94230520F039F49F3F19F40A
S11307B026F40C9419050EF4E095E7FB0C9413054C
S11307C0E92F0E943B0558F3BA17620773078407A1
S11307D0950720F079F4A6F50C945D050EF4E095E8
S11307E00B2EBA2FA02D0B01B90190010C01CA01E7
S11307F0A0011124FF27591B99F0593F50F4503E92
S113080068F11A16F040A22F232F342F4427585F83
S1130810F3CF469537952795A795F0405395C9F79B
S11308207EF41F16BA0B620B730B840BBAF0915053
S1130830A1F0FF0FBB1F661F771F881FC2F70EC0F2
S1130840BA0F621F731F841F48F4879577956795C5
S1130850B795F7959E3F08F0B0CF9395880F08F0B1
S11308609927EE0F9795879508950E9449040C9453
S11308702A050E94230558F00E941C0540F029F423
S11308805F3F29F00C94130551110C945E050C94F0
S113089019050E943B0568F39923B1F3552391F39D
S11308A0951B550BBB27AA2762177307840738F0DB
S11308B09F5F5F4F220F331F441FAA1FA9F335D038
S11308C00E2E3AF0E0E832D091505040E695001CEC
S11308D0CAF72BD0FE2F29D0660F771F881FBB1FA6
S11308E0261737074807AB07B0E809F0BB0B802D84
S11308F0BF01FF2793585F4F3AF09E3F510578F0B0
S11309000C9413050C945E055F3FE4F3983ED4F316
S1130910869577956795B795F7959F5FC9F7880F83
S1130920911D9695879597F90895E1E0660F771FD5
S1130930881FBB1F621773078407BA0720F0621B66
S1130940730B840BBA0BEE1F88F7E09508950E9491
S1130950430588F09F5798F0B92F9927B751B0F005
S1130960E1F0660F771F881F991F1AF0BA95C9F72F
S113097014C0B13091F00E945D05B1E008950C946B
S11309805D05672F782F8827B85F39F0B93FCCF31E
S1130990869577956795B395D9F73EF490958095AC
S11309A0709561957F4F8F4F9F4F0895E89409C0CC
S11309B097FB3EF490958095709561957F4F8F4F8E
S11309C09F4F9923A9F0F92F96E9BB279395F695A4
S11309D0879577956795B795F111F8CFFAF4BB0F22
S11309E011F460FF1BC06F5F7F4F8F4F9F4F16C086
S11309F0882311F096E911C0772321F09EE8872F10
S1130A00762F05C0662371F096E8862F70E060E0CB
S1130A102AF09A95660F771F881FDAF7880F969544
S1130A20879597F9089597F99F6780E870E060E0EB
S1130A3008959FEF80EC089500240A941616170673
S1130A4018060906089500240A94121613061406BB
S1130A5005060895092E0394000C11F4882352F01E
S1130A60BB0F40F4BF2B11F460FF04C06F5F7F4FD6
S1130A708F4F9F4F089557FD9058440F551F59F0BD
S1130A805F3F71F04795880F97FB991F61F09F3F77
S1130A9079F087950895121613061406551FF2CFA0
S1130AA04695F1DF08C0161617061806991FF1CFF0
S1130AB086957105610508940895E894BB27662717
S1130AC07727CB0197F908950F93083090F0982F6A
S1130AD0872F762F652F542F432F322F222708502C
S1130AE0F4CF220F331F441F551F661F771F881F23
S1130AF0991F0A95B2F70F91089597FB10F8169471
S1130B0000080F93083098F00850232F342F452FF6
S1130B10562F672F782F892F902DF4CF0594979512
S1130B2087957795679557954795379527950A95AE
S1130B30AAF70F9108950024A7FD00942A17300501
S1130B404005500560057005800590050895AEE0E8
S1130B50B0E0EDEAF5E00C9478088C01FA0186E047
S1130B608C8309831A8377FF02C060E070E8CB01AD
S1130B7001978D839E83A901BF01CE0101960E9436
S1130B80D3054D815E8157FD0AC02F8138854217F8
S1130B9053070CF49A01F801E20FF31F10822E960A
S1130BA0E4E00C949108ABE0B0E0E9EDF5E00C94DE
S1130BB06A086C017B018A01FC0116821782838119
S1130BC081FFCCC1CE0101963C01F6019381F7016E
S1130BD093FD859193FF81917F01882309F4BAC124
S1130BE0853239F493FD859193FF81917F0185329C
S1130BF029F4B60190E00E94CA07E7CF912C212C7A
S1130C00312CFFE1F315D8F08B3279F038F48032CF
S1130C1079F08332A1F4232D20611DC08D3261F05F
S1130C20803369F4232D216016C0832D8260382E11
S1130C30E32DE4603E2E2AC0F32DF8601DC037FC7E
S1130C402DC020ED280F2A3040F08E32B9F436FC46
S1130C5081C1232D2064322E19C036FE06C08AE0DD
S1130C60989E200D1124922E11C0EAE02E9E200D94
S1130C701124222EF32DF0623F2E08C08C3621F46D
S1130C80832D8068382E02C0883641F4F70193FD25
S1130C90859193FF81917F018111B3CF982F9F7D1F
S1130CA09554933028F40C5F1F4F9FE399830DC034
S1130CB0833631F0833771F0833509F059C021C090
S1130CC0F801808189830E5F1F4F88248394912CBF
S1130CD0530113C02801F2E04F0E511CF801A0800B
S1130CE0B18036FE03C0692D70E002C06FEF7FEF64
S1130CF0C5010E94BF074C018201F32DFF773F2EEF
S1130D0016C0280122E0420E511CF801A080B180D7
S1130D1036FE03C0692D70E002C06FEF7FEFC5019E
S1130D200E94B4074C01F32DF0683F2E820133FC7E
S1130D301BC0822D90E088169906B0F4B60180E2BB
S1130D4090E00E94CA072A94F4CFF50137FC8591FC
S1130D5037FE81915F01B60190E00E94CA0721101D
S1130D602A9421E0821A91088114910471F7E8C051
S1130D70843611F0893641F5F80137FE07C06081E9
S1130D807181828193810C5F1F4F08C060817181E2
S1130D90072E000C880B990B0E5F1F4FF32DFF7667
S1130DA03F2E97FF09C090958095709561957F4F70
S1130DB08F4F9F4FF0683F2E2AE030E0A3010E943E
S1130DC00608882E861845C0853731F4232D2F7EDA
S1130DD0B22E2AE030E025C0932D997FB92E8F36AC
S1130DE0C1F018F4883579F0B5C0803719F0883728
S1130DF021F0B0C0E92FE061BE2EB4FE0DC0FB2D82
S1130E00F460BF2E09C034FE0AC0292F2660B22E1A
S1130E1006C028E030E005C020E130E002C020E157
S1130E2032E0F801B7FE07C060817181828193814D
S1130E300C5F1F4F06C06081718180E090E00E5FFF
S1130E401F4FA3010E940608882E8618FB2DFF77EA
S1130E503F2E36FE0DC0232D2E7FA22E891458F46A
S1130E6034FE0BC032FC09C0832D8E7EA82E05C033
S1130E70B82CA32C03C0B82C01C0B92CA4FE0FC0FD
S1130E80FE01E80DF11D8081803321F49A2D997EB5
S1130E90A92E09C0A2FE06C0B394B39404C08A2D3F
S1130EA0867809F0B394A3FC11C0A0FE06C0B21466
S1130EB088F4280C922C9B180EC0B21460F4B6016E
S1130EC080E290E00E94CA07B394F7CFB21418F4FA
S1130ED02B1802C0982C212CA4FE10C0B60180E36C
S1130EE090E00E94CA07A2FE17C0A1FC03C088E7D5
S1130EF090E002C088E590E0B6010CC08A2D8678A7
S1130F0059F0A1FE02C08BE201C080E2A7FC8DE291
S1130F10B60190E00E94CA07891438F4B60180E350
S1130F2090E00E94CA079A94F7CF8A94F301E80DDF
S1130F30F11D8081B60190E00E94CA078110F5CFAF
S1130F40222009F442CEB60180E290E00E94CA0752
S1130F502A94F6CFF6018681978102C08FEF9FEF26
S1130F602B96E2E10C948308FC01059061507040DB
S1130F700110D8F7809590958E0F9F1F0895FC015E
S1130F806150704001900110D8F7809590958E0FB4
S1130F909F1F08950F931F93CF93DF93FB0123812A
S1130FA021FD03C08FEF9FEF2CC022FF16C04681A6
S1130FB05781248135814217530744F4A081B181BC
S1130FC09D012F5F3F4F208331838C93268137818E
S1130FD02F5F3F4F2683378314C08B01EC01FB0145
S1130FE00084F185E02D0995892BE1F6D801169648
S1130FF08D919C911797019616968D939C931797B4
S1131000CE01DF91CF911F910F910895FA01AA2784
S1131010283051F1203181F1E8946F936E7F6E5F37
S11310207F4F8F4F9F4FAF4FB1E03ED0B4E03CD0E5
S1131030670F781F891F9A1FA11D680F791F8A1FC8
S1131040911DA11D6A0F711D811D911DA11D20D02F
S113105009F468943F912AE0269F11243019305DE9
S11310603193DEF6CF010895462F4770405D4193DA
S1131070B3E00FD0C9F7F6CF462F4F70405D4A3327
S113108018F0495D31FD4052419302D0A9F7EACFEF
S1131090B4E0A6959795879577956795BA95C9F71E
S11310A000976105710508959B01AC010A2E069411
S11310B05795479537952795BA95C9F7620F731FCA
S11310C0841F951FA01D0895DC0128ED2093340092
S11310D06C9308952F923F924F925F926F927F92FA
S11310E08F929F92AF92BF92CF92DF92EF92FF9234
S11310F00F931F93CF93DF93CDB7DEB7CA1BDB0BE0
S1131100CDBFDEBF09942A88398848885F846E84FD
S11311107D848C849B84AA84B984C884DF80EE8017
S1131120FD800C811B81AA81B981CE0FD11DCDBF59
S10D1130DEBFED010895F894FFCF2F
S113113A009BAD36C15A6CF71982B42FD84375EEA9
S113114A32A99F04F3685EC52BB0861DEA7147DC99
S113115A64FFC952A53E08937DE6D04BBC27118A89
S113116A56CDFB60970C3AA14FD4E2798E1523B879
S113117AC85365FE0992A43FD14A7CE7108BBD2669
S113118AFA6157CC3BA0960DE3784ED522B98F1459
S113119AAC37019A6DF6C05BB52E188374EFD94249
S11311AA9E0533A85FC4F269871C2AB146DDEB7039
S11311BA0B90A63DCA5167FC1289BF24D3487EE529
S11311CA39A2940FF86355CE20BB8D16E17A4CD719
S11311DA6FF4C259AE35039876EDDB40B72C1A8109
S11311EA5DC6F06B9C0731AA44DFE972851E28B3F9
S11311FAC3586EF50299AF34DA4177EC1B80B62DE9
S113120AF16A5CC730AB9D06E87345DE29B2841FD8
S113121AA73C0A9166FDCB50BE2513887FE4D249C8
S113122A950E38A354CFF9628C1721BA4DD6E07BB8
S113123A000306050C0F0A09181B1E1D14171211A8
S113124A303336353C3F3A39282B2E2D2427222198
S113125A232025262F2C292A3B383D3E3734313288
S113126A131015161F1C191A0B080D0E0704010278
S113127A3C2530347825303478253033782530339A
S10E128A782578253032783E0D0A00EC
S9030000FC
