S0270000417474696E79313632342D546F7765722D546F702D436F6E74726F6C6C65722E73726563C8
S11300000C943C000C944E000C944E000C944E0046
S11300100C944E000C944E000C944E000C944E0024
S11300200C944E000C944E000C944E000C944E0014
S11300300C944E000C944E000C944E000C944E0004
S11300400C944E000C944E000C944E000C944E00F4
S11300500C944E000C944E000C944E000C944E00E4
S11300600C944E000C944E000C944E000C944E00D4
S11300700C944E000C944E0011241FBECFEFCDBF44
S1130080DFE3DEBF28E3A0E0B8E301C01D92A331A3
S1130090B207E1F70E94CB000C949F020C9400007D
S11300A060E080E690E00E94990260E081E690E0E2
S11300B00E9499028091630080FDFCCF08950F9304
S11300C01F938B019C010F2EFCE036952795179505
S11300D00795FA95D1F7F02D0F73112722273327AF
S11300E0F801EE5BFA4740818B019C01689415F896
S11300F036952795179507951694D1F70F73112701
S1130100222733270427F801EE5BFA472081DC011C
S1130110CB018F739927AA27BB278227FC01EE5BAB
S1130120FA4780811F910F910895CF93FC0180813C
S11301309181A281B381C82FCF73BC01CD01689492
S113014015F896958795779567951694D1F76083FA
S11301507183828393830E945F0091E0C81301C07E
S113016090E0892FCF9108951092E205E0E2F4E047
S113017086E0818388E0828B99E09283838BE0E040
S1130180F4E092EC9183818B84E0828390EC9583FC
S1130190848B858B08950E9450000E94B4000E94B5
S11301A0700180E80E94EA002FE78AE196E021507E
S11301B080409040E1F700C0000080E40E94EA0023
S11301C02FE78AE196E0215080409040E1F700C09B
S11301D00000E7CF0F931F93CF93DF9300D000D09D
S11301E0CDB7DEB7082F19821A821B821C82809336
S11301F0060410E024C08FE60E947B01809104086D
S113020086FFFCCFE0E0F8E0848180648483898108
S11302109A81AB81BC81BA2FA92F982F8827898313
S11302209A83AB83BC830E94820149815A816B818A
S11302307C81482B49835A836B837C831F5F1330F3
S1130240D0F200930504003819F408E018E302C062
S113025000E018E3CE0101960E949500F80187831F
S113026089819A81AB81BC81282F23702483AC01BE
S1130270BD017695679557954795769567955795FA
S11302804795242F21702583AC01BD01689412F891
S113029076956795579547951694D1F7242F217035
S11302A02683BC01CD01689413F8969587957795BC
S11302B067951694D1F70E940B0221E63BE046E3D2
S11302C052E40E949901F8016083718382839383CD
S11302D02496CDBFDEBFDF91CF911F910F9108957A
S11302E0E0E0F8E080E095E08087918780EC868309
S11302F082EC878308959091040895FFFCCF809346
S11303000208089580E88093040880E49CE9A0E052
S1130310B0E008C00197A109B10921F481E08093FC
S1130320123804C0209104082223A4F78091000805
S113033008950E94AD010C945F020E94580258F087
S11303400E94510240F029F45F3F29F00C944802C6
S113035051110C9493020C944E020E94700268F3A3
S11303609923B1F3552391F3951B550BBB27AA276A
S113037062177307840738F09F5F5F4F220F331FA4
S1130380441FAA1FA9F335D00E2E3AF0E0E832D06C
S113039091505040E695001CCAF72BD0FE2F29D06F
S11303A0660F771F881FBB1F261737074807AB0741
S11303B0B0E809F0BB0B802DBF01FF2793585F4FB6
S11303C03AF09E3F510578F00C9448020C94930245
S11303D05F3FE4F3983ED4F3869577956795B79598
S11303E0F7959F5FC9F7880F911D9695879597F9A3
S11303F00895E1E0660F771F881FBB1F621773071C
S11304008407BA0720F0621B730B840BBA0BEE1F30
S113041088F7E0950895E89409C097FB3EF4909519
S11304208095709561957F4F8F4F9F4F9923A9F0C9
S1130430F92F96E9BB279395F69587957795679558
S1130440B795F111F8CFFAF4BB0F11F460FF1BC09C
S11304506F5F7F4F8F4F9F4F16C0882311F096E92F
S113046011C0772321F09EE8872F762F05C06623DD
S113047071F096E8862F70E060E02AF09A95660F96
S1130480771F881FDAF7880F9695879597F908954F
S113049097F99F6780E870E060E008959FEF80EC33
S11304A0089500240A9416161706180609060895D6
S11304B000240A9412161306140605060895092E3C
S11304C00394000C11F4882352F0BB0F40F4BF2BAB
S11304D011F460FF04C06F5F7F4F8F4F9F4F0895EB
S11304E057FD9058440F551F59F05F3F71F04795E1
S11304F0880F97FB991F61F09F3F79F087950895C6
S1130500121613061406551FF2CF4695F1DF08C0E4
S1130510161617061806991FF1CF86957105610501
S113052008940895E894BB2766277727CB0197F9A9
S11305300895DC0128ED209334006C930895F89419
S1050540FFCFE7
S1130542000306050C0F0A09181B1E1D14171211AD
S1130552303336353C3F3A39282B2E2D242722219D
S1130562232025262F2C292A3B383D3E373431328D
S1130572131015161F1C191A0B080D0E070401027D
S9030000FC
