S0270000417474696E79313632342D546F7765722D546F702D436F6E74726F6C6C65722E73726563C8
S11300000C943C000C944E000C944E000C944E0046
S11300100C944E000C944E000C944E000C944E0024
S11300200C944E000C944E000C944E000C944E0014
S11300300C944E000C944E000C944E000C944E0004
S11300400C944E000C944E000C944E000C944E00F4
S11300500C944E000C944E000C944E000C944E00E4
S11300600C944E000C944E000C944E000C944E00D4
S11300700C944E000C944E0011241FBECFEFCDBF44
S1130080DFE3DEBF28E3A0E0B8E301C01D92A2369F
S1130090B207E1F70E944A020C94A3090C940000F1
S11300A0E0E0F6E081E0808384E0818380EA82837B
S11300B010868AE0818780E582878091060680FD2C
S11300C0FCCF0895E0E0F6E0848782858160828732
S11300D08091060680FDFCCF8091050681FFFCCF50
S11300E0E0E0F6E082E085838489958908958F9223
S11300F09F92AF92BF92EF92FF920F931F93CF9371
S1130100C82F823019F400E018E302C00BE218E3B0
S1130110CB3009F049C00F2EE12CF6E0FF2EF02D74
S1130120F7018281887F8460828381E30E94620078
S1130130BC0180E090E00E94270520E030E040E828
S11301405EE30E94B5052DEC3CEC4CEC53E40E94BC
S11301507F044B015C01F7018281887F82838C2FAD
S11301600E946200BC0180E090E00E942705A50186
S113017094010E94B50520E030E040E85EE30E946F
S1130180B50520E030E040E451E40E9412040E94EE
S1130190F1049B01772324F422273327261B370BF2
S11301A0F8012083318319C0E0E0F6E08281887F82
S11301B0856082838C2F0E946200BC0180E090E005
S11301C00E94270520E030E040E45FE30E94B5058B
S11301D00E94F804F80160837183CF911F910F91FD
S11301E0FF90EF90BF90AF909F908F900895809173
S11301F063008823E4F363E080E690E00E946C09E6
S113020060E081E690E00E946C098091630080FDCB
S1130210FCCF08950F931F938B019C010F2EFCE0DC
S11302203695279517950795FA95D1F7F02D0F7305
S1130230112722273327F801E65BFB4640818B0117
S11302409C01689415F8369527951795079516948B
S1130250D1F70F731127222733270427F801E65B10
S1130260FB462081DC01CB018F739927AA27BB278A
S11302708227FC01E65BFB4680811F910F91089564
S1130280CF93FC0180819181A281B381C82FCF7368
S1130290BC01CD01689415F8969587957795679577
S11302A01694D1F760837183828393830E940A0139
S11302B091E0C81301C090E0892FCF9108952F9247
S11302C03F924F925F926F927F928F929F92AF92E2
S11302D0BF92CF92DF92EF92FF920F931F93CF932F
S11302E0DF93CDB7DEB72B97CDBFDEBFC22EB32EC3
S11302F0A42E952E862E772E682E592EF22E032F9D
S1130300142F5A876983B72FD82EE92EE0E0F0E046
S113031014C031962F2D302F412F5A8569817B2FA0
S11303208D2D9E2D08E00E947306F22E032F142FAC
S11303305A876983B72FD82EE92E2F2D302F412FBE
S11303405A8569817B2F8D2D9E2DA0E00E948F06FA
S113035001F78FEF8A87CB86B9824A2C392C282C57
S11303601AC08D01000F111F000F111F000F111F64
S11303702B853981442D532D622D772D862D952D76
S11303800E9473068A848226912CF401E65BFC4663
S113039080818A87FD01DF011197EF2B11F78A8590
S11303A02B96CDBFDEBFDF91CF911F910F91FF90B0
S11303B0EF90DF90CF90BF90AF909F908F907F9001
S11303C06F905F904F903F902F900895CF93DF935D
S11303D0C82F0E947700C23019F4C0E0D8E302C0ED
S11303E0CBE2D8E3EAA5F0E0888199813196EE0F5B
S11303F0FF1FEC0FFD1F808391838AA590E0019677
S113040064E170E00E9422068AA780E040E050E0A8
S1130410BA010EC0E82FF0E03196EE0FFF1FEC0F8B
S1130420FD1F20813181420F531F611D711D8F5F9C
S1130430843180F3CB01BA0124E130E040E050E0A4
S11304400E94360628833983DF91CF910895109254
S1130450E205A0E2B4E086E011968C93119788E05F
S113046052968C93529712968C93129753968C9320
S11304705397E0E0F4E092EC918390E8918B90E361
S11304809283848B858B80EC858384E050968C9357
S1130490828B08950E94F7000E9427020E948E0317
S11304A00E94B3030E94500080E80E94010380E48C
S11304B00E94010382E00E94E6018BE00E94E601B3
S11304C00E940104382ECCE5D8E388809980282D39
S11304D0392D40E050E060E070E080E090E00CE214
S11304E00E945806922EA32EB42E152FC62ED72E58
S11304F0F82FE92F0F2EF6E5EF2EF8E3FF2EF02D5F
S1130500D7014D915C91242F352F40E050E060E0FD
S113051070E080E090E00CE10E945806922AA32A41
S1130520B42A152B7C2C762A8D2C872AF82BE92BC0
S11305300F2EF0E0CF2EF8E3DF2EF02DD6018D91B3
S11305409C91AC01242F352F40E050E060E070E036
S113055080E090E000E10E94580629293A294B29BD
S1130560512B672978290BE218E3D8014D905C9050
S1130570612C712C440C551C661C771C440C551CB6
S1130580661C771C440C551C661C771C440C551CBB
S1130590661C771C242935294629572923298F2BA2
S11305A09E2B0E945F01F8017081E181D6015C916C
S11305B011966C91D7013C9111964C9198812981A7
S11305C01F928F931F923F92EF937F936F935F934A
S11305D04F933F932F939F938AE894E99F938F932C
S11305E00E94E303BFE7EAE1F6E0B150E040F040E7
S11305F0E1F700C000008DB79EB70E968DBF9EBF79
S113060053CF0F931F93CF93DF9300D000D0CDB778
S1130610DEB7082F19821A821B821C82809306047B
S113062010E024C08FE60E9499038091040886FF9D
S1130630FCCFE0E0F8E084818064848389819A813E
S1130640AB81BC81BA2FA92F982F882789839A83DD
S1130650AB83BC830E94A00349815A816B817C8156
S1130660482B49835A836B837C831F5F1330D0F2FA
S113067000930504003819F40CE518E302C006E5FC
S113068018E3CE0101960E944001F8018583898117
S11306908370828389819A81AB81BC81B695A79549
S11306A097958795B695A795979587958170838338
S11306B089819A81AB81BC81AC01BD01689412F837
S11306C076956795579547951694D1F7242F217001
S11306D02483BC01CD01689413F89695879577958A
S11306E067951694D1F70E94270523E534E049EE77
S11306F05EE30E947F0420E030E040E05FE30E947C
S113070013040E94F804F801608371832496CDBF1A
S1130710DEBFDF91CF911F910F910895E0E0F8E0E3
S113072080E095E08087918780EC868382EC8783E4
S113073008959091040895FFFCCF809302080895D2
S113074080E88093040880E49CE9A0E0B0E004C061
S11307500197A109B10921F0209104082223C4F7CB
S1130760809100080895E0E2F8E08BE591E080874D
S1130770918782E4868383E0878308959091240897
S113078095FFFCCF8093220808950F931F93CF9376
S1130790DF938C01C0E0D0E007C0F801EC0FFD1F2F
S11307A080810E94BE032196F80101900020E9F7A0
S11307B03197E01BF10BCE17DF0778F3DF91CF9170
S11307C01F910F910895CF93DF93CDB7DEB76E9746
S11307D0CDBFDEBF9E012D5D3F4FF9014191519187
S11307E09F016EE170E0CE0101960E94AF06CE013A
S11307F001960E94C5036E96CDBFDEBFDF91CF91F7
S11308000895E0E0F4E0808582958695877091E014
S113081089278170908594FD02C092E001C090E028
S1130820892B08955058BB27AA270E942A040C94A8
S11308307B050E946D0538F00E94740520F039F4A0
S11308409F3F19F426F40C946A050EF4E095E7FB37
S11308500C946405E92F0E948C0558F3BA176207BB
S113086073078407950720F079F4A6F50C94AE0578
S11308700EF4E0950B2EBA2FA02D0B01B9019001B7
S11308800C01CA01A0011124FF27591B99F0593FFB
S113089050F4503E68F11A16F040A22F232F342F43
S11308A04427585FF3CF469537952795A795F04091
S11308B05395C9F77EF41F16BA0B620B730B840BA6
S11308C0BAF09150A1F0FF0FBB1F661F771F881F5E
S11308D0C2F70EC0BA0F621F731F841F48F48795B6
S11308E077956795B795F7959E3F08F0B0CF9395A8
S11308F0880F08F09927EE0F9795879508950E9421
S113090093040C947B050E94740558F00E946D05B5
S113091040F029F45F3F29F00C94640551110C94C4
S1130920AF050C946A050E948C0568F39923B1F312
S1130930552391F3951B550BBB27AA276217730701
S1130940840738F09F5F5F4F220F331F441FAA1F95
S1130950A9F335D00E2E3AF0E0E832D09150504051
S1130960E695001CCAF72BD0FE2F29D0660F771FFF
S1130970881FBB1F261737074807AB07B0E809F0E5
S1130980BB0B802DBF01FF2793585F4F3AF09E3F6A
S1130990510578F00C9464050C94AF055F3FE4F3C3
S11309A0983ED4F3869577956795B795F7959F5FAD
S11309B0C9F7880F911D9695879597F90895E1E0F9
S11309C0660F771F881FBB1F621773078407BA0758
S11309D020F0621B730B840BBA0BEE1F88F7E095B3
S11309E008950E94F8046894B1110C94AF05089519
S11309F00E94940588F09F5798F0B92F9927B75112
S1130A00B0F0E1F0660F771F881F991F1AF0BA95AE
S1130A10C9F714C0B13091F00E94AE05B1E0089559
S1130A200C94AE05672F782F8827B85F39F0B93F4B
S1130A30CCF3869577956795B395D9F73EF4909561
S1130A408095709561957F4F8F4F9F4F0895E894DF
S1130A5009C097FB3EF490958095709561957F4F02
S1130A608F4F9F4F9923A9F0F92F96E9BB279395B0
S1130A70F695879577956795B795F111F8CFFAF4C0
S1130A80BB0F11F460FF1BC06F5F7F4F8F4F9F4FF1
S1130A9016C0882311F096E911C0772321F09EE84F
S1130AA0872F762F05C0662371F096E8862F70E0B5
S1130AB060E02AF09A95660F771F881FDAF7880F8F
S1130AC09695879597F9089597F99F6780E870E060
S1130AD060E008959FEF80EC089500240A941616B0
S1130AE0170618060906089500240A941216130618
S1130AF0140605060895092E0394000C11F48823A6
S1130B0052F0BB0F40F4BF2B11F460FF04C06F5FC1
S1130B107F4F8F4F9F4F089557FD9058440F551F97
S1130B2059F05F3F71F04795880F97FB991F61F06B
S1130B309F3F79F087950895121613061406551FE2
S1130B40F2CF4695F1DF08C0161617061806991F4E
S1130B50F1CF86957105610508940895E894BB2743
S1130B6066277727CB0197F908950E94C8050C944E
S1130B707B050E946D0538F00E94740520F09523D2
S1130B8011F00C9464050C946A0511240C94AF05BF
S1130B900E948C0570F3959FC1F3950F50E0551F8B
S1130BA0629FF001729FBB27F00DB11D639FAA27BE
S1130BB0F00DB11DAA1F649F6627B00DA11D661F0D
S1130BC0829F2227B00DA11D621F739FB00DA11D2E
S1130BD0621F839FA00D611D221F749F3327A00DE8
S1130BE0611D231F849F600D211D822F762F6A2F84
S1130BF011249F5750409AF0F1F088234AF0EE0FE9
S1130C00FF1FBB1F661F771F881F91505040A9F715
S1130C109E3F510580F00C9464050C94AF055F3F32
S1130C20E4F3983ED4F3869577956795B795F79551
S1130C30E7959F5FC1F7FE2B880F911D96958795C9
S1130C4097F9089597FB072E16F4009407D077FDC3
S1130C5009D00E949B0607FC05D03EF4909581952F
S1130C609F4F0895709561957F4F0895A1E21A2EC4
S1130C70AA1BBB1BFD010DC0AA1FBB1FEE1FFF1F3C
S1130C80A217B307E407F50720F0A21BB30BE40B8C
S1130C90F50B661F771F881F991F1A9469F76095D3
S1130CA07095809590959B01AC01BD01CF0108958D
S1130CB00F93083090F0982F872F762F652F542F9D
S1130CC0432F322F22270850F4CF220F331F441F03
S1130CD0551F661F771F881F991F0A95B2F70F913A
S1130CE0089597FB10F8169400080F93083098F0B5
S1130CF00850232F342F452F562F672F782F892FF5
S1130D00902DF4CF0594979587957795679557958A
S1130D104795379527950A95AAF70F9108950024CA
S1130D20A7FD00942A17300540055005600570059D
S1130D30800590050895AA1BBB1B51E107C0AA1F9B
S1130D40BB1FA617B70710F0A61BB70B881F991F68
S1130D505A95A9F780959095BC01CD010895AEE010
S1130D60B0E0E5EBF6E00C9480098C01FA0186E032
S1130D708C8309831A8377FF02C060E070E8CB019B
S1130D8001978D839E83A901BF01CE0101960E9424
S1130D90DB064D815E8157FD0AC02F8138854217DD
S1130DA053070CF49A01F801E20FF31F10822E96F8
S1130DB0E4E00C949909ABE0B0E0E1EEF6E00C94C9
S1130DC072096C017B018A01FC01168217828381FE
S1130DD081FFCCC1CE0101963C01F6019381F7015C
S1130DE093FD859193FF81917F01882309F4BAC112
S1130DF0853239F493FD859193FF81917F0185328A
S1130E0029F4B60190E00E94D208E7CF912C212C5E
S1130E10312CFFE1F315D8F08B3279F038F48032BD
S1130E2079F08332A1F4232D20611DC08D3261F04D
S1130E30803369F4232D216016C0832D8260382EFF
S1130E40E32DE4603E2E2AC0F32DF8601DC037FC6C
S1130E502DC020ED280F2A3040F08E32B9F436FC34
S1130E6081C1232D2064322E19C036FE06C08AE0CB
S1130E70989E200D1124922E11C0EAE02E9E200D82
S1130E801124222EF32DF0623F2E08C08C3621F45B
S1130E90832D8068382E02C0883641F4F70193FD13
S1130EA0859193FF81917F018111B3CF982F9F7D0D
S1130EB09554933028F40C5F1F4F9FE399830DC022
S1130EC0833631F0833771F0833509F059C021C07E
S1130ED0F801808189830E5F1F4F88248394912CAD
S1130EE0530113C02801F2E04F0E511CF801A080F9
S1130EF0B18036FE03C0692D70E002C06FEF7FEF52
S1130F00C5010E94C7084C018201F32DFF773F2ED3
S1130F1016C0280122E0420E511CF801A080B180C5
S1130F2036FE03C0692D70E002C06FEF7FEFC5018C
S1130F300E94BC084C01F32DF0683F2E820133FC63
S1130F401BC0822D90E088169906B0F4B60180E2A9
S1130F5090E00E94D2082A94F4CFF50137FC8591E1
S1130F6037FE81915F01B60190E00E94D208211002
S1130F702A9421E0821A91088114910471F7E8C03F
S1130F80843611F0893641F5F80137FE07C06081D7
S1130F907181828193810C5F1F4F08C060817181D0
S1130FA0072E000C880B990B0E5F1F4FF32DFF7655
S1130FB03F2E97FF09C090958095709561957F4F5E
S1130FC08F4F9F4FF0683F2E2AE030E0A3010E942C
S1130FD00E09882E861845C0853731F4232D2F7EBF
S1130FE0B22E2AE030E025C0932D997FB92E8F369A
S1130FF0C1F018F4883579F0B5C0803719F0883716
S113100021F0B0C0E92FE061BE2EB4FE0DC0FB2D6F
S1131010F460BF2E09C034FE0AC0292F2660B22E08
S113102006C028E030E005C020E130E002C020E145
S113103032E0F801B7FE07C060817181828193813B
S11310400C5F1F4F06C06081718180E090E00E5FED
S11310501F4FA3010E940E09882E8618FB2DFF77CF
S11310603F2E36FE0DC0232D2E7FA22E891458F458
S113107034FE0BC032FC09C0832D8E7EA82E05C021
S1131080B82CA32C03C0B82C01C0B92CA4FE0FC0EB
S1131090FE01E80DF11D8081803321F49A2D997EA3
S11310A0A92E09C0A2FE06C0B394B39404C08A2D2D
S11310B0867809F0B394A3FC11C0A0FE06C0B21454
S11310C088F4280C922C9B180EC0B21460F4B6015C
S11310D080E290E00E94D208B394F7CFB21418F4DF
S11310E02B1802C0982C212CA4FE10C0B60180E35A
S11310F090E00E94D208A2FE17C0A1FC03C088E7BA
S113110090E002C088E590E0B6010CC08A2D867894
S113111059F0A1FE02C08BE201C080E2A7FC8DE27F
S1131120B60190E00E94D208891438F4B60180E335
S113113090E00E94D2089A94F7CF8A94F301E80DC4
S1131140F11D8081B60190E00E94D2088110F5CF94
S1131150222009F442CEB60180E290E00E94D20837
S11311602A94F6CFF6018681978102C08FEF9FEF14
S11311702B96E2E10C948B09FC01059061507040C0
S11311800110D8F7809590958E0F9F1F0895FC014C
S11311906150704001900110D8F7809590958E0FA2
S11311A09F1F08950F931F93CF93DF93FB01238118
S11311B021FD03C08FEF9FEF2CC022FF16C0468194
S11311C05781248135814217530744F4A081B181AA
S11311D09D012F5F3F4F208331838C93268137817C
S11311E02F5F3F4F2683378314C08B01EC01FB0133
S11311F00084F185E02D0995892BE1F6D801169636
S11312008D919C911797019616968D939C931797A1
S1131210CE01DF91CF911F910F910895FA01AA2772
S1131220283051F1203181F1E8946F936E7F6E5F25
S11312307F4F8F4F9F4FAF4FB1E03ED0B4E03CD0D3
S1131240670F781F891F9A1FA11D680F791F8A1FB6
S1131250911DA11D6A0F711D811D911DA11D20D01D
S113126009F468943F912AE0269F11243019305DD7
S11312703193DEF6CF010895462F4770405D4193C8
S1131280B3E00FD0C9F7F6CF462F4F70405D4A3315
S113129018F0495D31FD4052419302D0A9F7EACFDD
S11312A0B4E0A6959795879577956795BA95C9F70C
S11312B000976105710508959B01AC010A2E0694FF
S11312C05795479537952795BA95C9F7620F731FB8
S11312D0841F951FA01D0895DC0128ED2093340080
S11312E06C9308952F923F924F925F926F927F92E8
S11312F08F929F92AF92BF92CF92DF92EF92FF9222
S11313000F931F93CF93DF93CDB7DEB7CA1BDB0BCD
S1131310CDBFDEBF09942A88398848885F846E84EB
S11313207D848C849B84AA84B984C884DF80EE8005
S1131330FD800C811B81AA81B981CE0FD11DCDBF47
S10D1340DEBFED010895F894FFCF1D
S113134A009BAD36C15A6CF71982B42FD84375EE97
S113135A32A99F04F3685EC52BB0861DEA7147DC87
S113136A64FFC952A53E08937DE6D04BBC27118A77
S113137A56CDFB60970C3AA14FD4E2798E1523B867
S113138AC85365FE0992A43FD14A7CE7108BBD2657
S113139AFA6157CC3BA0960DE3784ED522B98F1447
S11313AAAC37019A6DF6C05BB52E188374EFD94237
S11313BA9E0533A85FC4F269871C2AB146DDEB7027
S11313CA0B90A63DCA5167FC1289BF24D3487EE517
S11313DA39A2940FF86355CE20BB8D16E17A4CD707
S11313EA6FF4C259AE35039876EDDB40B72C1A81F7
S11313FA5DC6F06B9C0731AA44DFE972851E28B3E7
S113140AC3586EF50299AF34DA4177EC1B80B62DD6
S113141AF16A5CC730AB9D06E87345DE29B2841FC6
S113142AA73C0A9166FDCB50BE2513887FE4D249B6
S113143A950E38A354CFF9628C1721BA4DD6E07BA6
S113144A000306050C0F0A09181B1E1D1417121196
S113145A303336353C3F3A39282B2E2D2427222186
S113146A232025262F2C292A3B383D3E3734313276
S113147A131015161F1C191A0B080D0E0704010266
S113148A3C25303478253034782530337825303388
S10E149A782578253032783E0D0A00DA
S9030000FC
