S0270000417474696E79313632342D546F7765722D546F702D436F6E74726F6C6C65722E73726563C8
S11300000C943C000C944E000C944E000C944E0046
S11300100C944E000C944E000C944E000C944E0024
S11300200C944E000C944E000C944E000C944E0014
S11300300C944E000C944E000C944E000C944E0004
S11300400C944E000C944E000C944E000C944E00F4
S11300500C944E000C944E000C944E000C944E00E4
S11300600C944E000C944E000C944E000C944E00D4
S11300700C944E000C944E0011241FBECFEFCDBF44
S1130080DFE3DEBF28E3A0E0B8E301C01D92AF3098
S1130090B207E1F70E94CB000C9442030C940000D9
S11300A060E080E690E00E943C0360E081E690E03E
S11300B00E943C038091630080FDFCCF08950F9360
S11300C01F938B019C010F2EFCE036952795179505
S11300D00795FA95D1F7F02D0F73112722273327AF
S11300E0F801E857F94740818B019C01689415F8A1
S11300F036952795179507951694D1F70F73112701
S1130100222733270427F801E857F9472081DC0127
S1130110CB018F739927AA27BB278227FC01E857B5
S1130120F94780811F910F910895CF93FC0180813D
S11301309181A281B381C82FCF73BC01CD01689492
S113014015F896958795779567951694D1F76083FA
S11301507183828393830E945F0091E0C81301C07E
S113016090E0892FCF9108951092E205E0E2F4E047
S113017086E0818388E0828B99E09283838BE0E040
S1130180F4E092EC9183818B84E0828390EC9583FC
S1130190848B858B08950E9450000E94B4000E94B5
S11301A0770180E80E94EA002FE78AE196E0215077
S11301B080409040E1F700C0000080E40E94EA0023
S11301C02FE78AE196E0215080409040E1F700C09B
S11301D00000E7CF0F931F93CF93DF9300D000D09D
S11301E0CDB7DEB7082F19821A821B821C82809336
S11301F0060410E024C08FE60E9482018091040866
S113020086FFFCCFE0E0F8E0848180648483898108
S11302109A81AB81BC81BA2FA92F982F8827898313
S11302209A83AB83BC830E94890149815A816B8183
S11302307C81482B49835A836B837C831F5F1330F3
S1130240D0F200930504003819F406E018E302C064
S113025000E018E3CE0101960E949500F801858321
S113026089818370828389819A81AB81BC81B695AF
S1130270A79597958795B695A79597958795817036
S1130280838389819A81AB81BC81AC01BD0168946F
S113029012F876956795579547951694D1F7242FBC
S11302A021702483BC01CD01689413F89695879539
S11302B0779567951694D1F70E94AE0223E534E052
S11302C049EE5EE30E940D0220E030E040E05FE38F
S11302D00E94A1010E947F02F80160837183249629
S11302E0CDBFDEBFDF91CF911F910F910895E0E064
S11302F0F8E080E095E08087918780EC868382EC4B
S1130300878308959091040895FFFCCF8093020899
S1130310089580E88093040880E49CE9A0E0B0E0BC
S113032008C00197A109B10921F481E080930E3836
S113033004C0209104082223A4F7809100080895A2
S11303405058BB27AA270E94B8010C9402030E94AC
S1130350F40238F00E94FB0220F039F49F3F19F4B4
S113036026F40C94F1020EF4E095E7FB0C94EB02F6
S1130370E92F0E94130358F3BA176207730784071F
S1130380950720F079F4A6F50C9435030EF4E09566
S11303900B2EBA2FA02D0B01B90190010C01CA013B
S11303A0A0011124FF27591B99F0593F50F4503EE6
S11303B068F11A16F040A22F232F342F4427585FD8
S11303C0F3CF469537952795A795F0405395C9F7F0
S11303D07EF41F16BA0B620B730B840BBAF09150A8
S11303E0A1F0FF0FBB1F661F771F881FC2F70EC047
S11303F0BA0F621F731F841F48F48795779567951A
S1130400B795F7959E3F08F0B0CF9395880F08F005
S11304109927EE0F9795879508950E9421020C94D1
S113042002030E94FB0258F00E94F40240F029F4F7
S11304305F3F29F00C94EB0251110C9436030C9499
S1130440F1020E94130368F39923B1F3552391F346
S1130450951B550BBB27AA2762177307840738F02F
S11304609F5F5F4F220F331F441FAA1FA9F335D08C
S11304700E2E3AF0E0E832D091505040E695001C40
S1130480CAF72BD0FE2F29D0660F771F881FBB1FFA
S1130490261737074807AB07B0E809F0BB0B802DD8
S11304A0BF01FF2793585F4F3AF09E3F510578F004
S11304B00C94EB020C9436035F3FE4F3983ED4F3C0
S11304C0869577956795B795F7959F5FC9F7880FD8
S11304D0911D9695879597F90895E1E0660F771F2A
S11304E0881FBB1F621773078407BA0720F0621BBB
S11304F0730B840BBA0BEE1F88F7E09508950E94E6
S11305001B0388F09F5798F0B92F9927B751B0F083
S1130510E1F0660F771F881F991F1AF0BA95C9F783
S113052014C0B13091F00E943503B1E008950C94E9
S11305303503672F782F8827B85F39F0B93FCCF39C
S1130540869577956795B395D9F73EF49095809500
S1130550709561957F4F8F4F9F4F0895E89409C020
S113056097FB3EF490958095709561957F4F8F4FE2
S11305709F4F9923A9F0F92F96E9BB279395F695F8
S1130580879577956795B795F111F8CFFAF4BB0F76
S113059011F460FF1BC06F5F7F4F8F4F9F4F16C0DA
S11305A0882311F096E911C0772321F09EE8872F64
S11305B0762F05C0662371F096E8862F70E060E020
S11305C02AF09A95660F771F881FDAF7880F969599
S11305D0879597F9089597F99F6780E870E060E040
S11305E008959FEF80EC089500240A9416161706C8
S11305F018060906089500240A9412161306140610
S113060005060895092E0394000C11F4882352F072
S1130610BB0F40F4BF2B11F460FF04C06F5F7F4F2A
S11306208F4F9F4F089557FD9058440F551F59F011
S11306305F3F71F04795880F97FB991F61F09F3FCB
S113064079F087950895121613061406551FF2CFF4
S11306504695F1DF08C0161617061806991FF1CF44
S113066086957105610508940895E894BB2766276B
S11306707727CB0197F90895DC0128ED2093340006
S10B06806C930895F894FFCF78
S1130688000306050C0F0A09181B1E1D1417121166
S1130698303336353C3F3A39282B2E2D2427222156
S11306A8232025262F2C292A3B383D3E3734313246
S11306B8131015161F1C191A0B080D0E0704010236
S9030000FC
